{
  "_format": "hh-sol-artifact-1",
  "contractName": "ERC721BuyRandom",
  "sourceName": "contracts/polygon/BUYNFT/ERC721BuyRandom.sol",
  "abi": [
    {
      "inputs": [
        {
          "internalType": "address",
          "name": "_owner",
          "type": "address"
        },
        {
          "internalType": "address",
          "name": "_nft",
          "type": "address"
        }
      ],
      "stateMutability": "nonpayable",
      "type": "constructor"
    },
    {
      "anonymous": false,
      "inputs": [
        {
          "indexed": true,
          "internalType": "address",
          "name": "previousOwner",
          "type": "address"
        },
        {
          "indexed": true,
          "internalType": "address",
          "name": "newOwner",
          "type": "address"
        }
      ],
      "name": "OwnershipTransferred",
      "type": "event"
    },
    {
      "inputs": [
        {
          "internalType": "address payable",
          "name": "_to",
          "type": "address"
        }
      ],
      "name": "claimTreasury",
      "outputs": [],
      "stateMutability": "nonpayable",
      "type": "function"
    },
    {
      "inputs": [
        {
          "internalType": "uint256[]",
          "name": "tokens",
          "type": "uint256[]"
        }
      ],
      "name": "freeMintNft",
      "outputs": [],
      "stateMutability": "nonpayable",
      "type": "function"
    },
    {
      "inputs": [],
      "name": "getChainId",
      "outputs": [
        {
          "internalType": "uint256",
          "name": "",
          "type": "uint256"
        }
      ],
      "stateMutability": "view",
      "type": "function"
    },
    {
      "inputs": [
        {
          "internalType": "uint256",
          "name": "nfts",
          "type": "uint256"
        }
      ],
      "name": "getPrice",
      "outputs": [
        {
          "internalType": "uint256",
          "name": "",
          "type": "uint256"
        }
      ],
      "stateMutability": "view",
      "type": "function"
    },
    {
      "inputs": [
        {
          "internalType": "uint256[]",
          "name": "tokens",
          "type": "uint256[]"
        },
        {
          "internalType": "bytes[]",
          "name": "signatures",
          "type": "bytes[]"
        }
      ],
      "name": "mintNft",
      "outputs": [],
      "stateMutability": "payable",
      "type": "function"
    },
    {
      "inputs": [],
      "name": "owner",
      "outputs": [
        {
          "internalType": "address",
          "name": "",
          "type": "address"
        }
      ],
      "stateMutability": "view",
      "type": "function"
    },
    {
      "inputs": [],
      "name": "renounceOwnership",
      "outputs": [],
      "stateMutability": "nonpayable",
      "type": "function"
    },
    {
      "inputs": [
        {
          "internalType": "uint256[]",
          "name": "_prices",
          "type": "uint256[]"
        }
      ],
      "name": "setPrices",
      "outputs": [],
      "stateMutability": "nonpayable",
      "type": "function"
    },
    {
      "inputs": [
        {
          "internalType": "address",
          "name": "_verifier",
          "type": "address"
        }
      ],
      "name": "setVerifier",
      "outputs": [],
      "stateMutability": "nonpayable",
      "type": "function"
    },
    {
      "inputs": [
        {
          "internalType": "address",
          "name": "newOwner",
          "type": "address"
        }
      ],
      "name": "transferOwnership",
      "outputs": [],
      "stateMutability": "nonpayable",
      "type": "function"
    },
    {
      "inputs": [
        {
          "internalType": "bytes",
          "name": "signature",
          "type": "bytes"
        },
        {
          "internalType": "address",
          "name": "buyer",
          "type": "address"
        },
        {
          "internalType": "uint256",
          "name": "tokenId",
          "type": "uint256"
        }
      ],
      "name": "verify",
      "outputs": [],
      "stateMutability": "view",
      "type": "function"
    }
  ],
  "bytecode": "0x6101406040523480156200001257600080fd5b50604051620016a0380380620016a08339810160408190526200003591620002af565b6040518060400160405280600f81526020016e45524337323142757952616e646f6d60881b815250604051806040016040528060018152602001603160f81b815250620000916200008b6200016960201b60201c565b6200016d565b815160208084019190912082518383012060e08290526101008190524660a0818152604080517f8b73c3c69bb8fe3d512ecc4cf759cc79239f7b179b0ffacaa9a75d522b39400f81880181905281830187905260608201869052608082019490945230818401528151808203909301835260c00190528051940193909320919290916080523060601b60c052610120525050600180546001600160a01b038581166001600160a01b03199283161790925560028054928716929091169190911790555062000161905082620001bd565b5050620002e6565b3390565b600080546001600160a01b038381166001600160a01b0319831681178455604051919092169283917f8be0079c531659141344cd1fd0a4f28419497f9722a3daafe3b4186f6b6457e09190a35050565b6000546001600160a01b031633146200021d5760405162461bcd60e51b815260206004820181905260248201527f4f776e61626c653a2063616c6c6572206973206e6f7420746865206f776e657260448201526064015b60405180910390fd5b6001600160a01b038116620002845760405162461bcd60e51b815260206004820152602660248201527f4f776e61626c653a206e6577206f776e657220697320746865207a65726f206160448201526564647265737360d01b606482015260840162000214565b6200028f816200016d565b50565b80516001600160a01b0381168114620002aa57600080fd5b919050565b60008060408385031215620002c2578182fd5b620002cd8362000292565b9150620002dd6020840162000292565b90509250929050565b60805160a05160c05160601c60e0516101005161012051611367620003396000396000610b9001526000610bdf01526000610bba01526000610b1301526000610b3d01526000610b6701526113676000f3fe6080604052600436106100bc5760003560e01c80635437988d116100745780638da5cb5b1161004e5780638da5cb5b146101ad578063e7572230146101d5578063f2fde38b146101f557600080fd5b80635437988d14610158578063715018a61461017857806379cf92d31461018d57600080fd5b80633495c1f9116100a55780633495c1f9146100f857806346f61ca81461011857806353dcac7a1461013857600080fd5b80630ed21c3a146100c15780633408e470146100d6575b600080fd5b6100d46100cf3660046110f3565b610215565b005b3480156100e257600080fd5b50465b6040519081526020015b60405180910390f35b34801561010457600080fd5b506100d46101133660046110b3565b61047c565b34801561012457600080fd5b506100d4610133366004611090565b61059e565b34801561014457600080fd5b506100d461015336600461115c565b61069f565b34801561016457600080fd5b506100d4610173366004611090565b61077b565b34801561018457600080fd5b506100d4610804565b34801561019957600080fd5b506100d46101a83660046110b3565b61086a565b3480156101b957600080fd5b506000546040516001600160a01b0390911681526020016100ef565b3480156101e157600080fd5b506100e56101f0366004611222565b6108d5565b34801561020157600080fd5b506100d4610210366004611090565b610934565b8281146102695760405162461bcd60e51b815260206004820152601260248201527f5369676e6174757265206d69736d61746368000000000000000000000000000060448201526064015b60405180910390fd5b82158015906102785750606483105b6102c45760405162461bcd60e51b815260206004820152601860248201527f496e76616c6964206e756d626572206f6620746f6b656e7300000000000000006044820152606401610260565b6001546000906001600160a01b0316815b858110156103c157600381815481106102fe57634e487b7160e01b600052603260045260246000fd5b90600052602060002001548361031491906112e2565b92506103af85858381811061033957634e487b7160e01b600052603260045260246000fd5b905060200281019061034b919061129d565b8080601f0160208091040260200160405190810160405280939291908181526020018383808284376000920191909152503392508b91508a9050858181106103a357634e487b7160e01b600052603260045260246000fd5b9050602002013561069f565b6103ba8160016112e2565b90506102d5565b50813410156104125760405162461bcd60e51b815260206004820152601260248201527f496e73756666696369656e742066756e647300000000000000000000000000006044820152606401610260565b6040516394d8314160e01b81526001600160a01b038216906394d83141906104429089908990339060040161123a565b600060405180830381600087803b15801561045c57600080fd5b505af1158015610470573d6000803e3d6000fd5b50505050505050505050565b6000546001600160a01b031633146104d65760405162461bcd60e51b815260206004820181905260248201527f4f776e61626c653a2063616c6c6572206973206e6f7420746865206f776e65726044820152606401610260565b80158015906104e55750606481105b6105315760405162461bcd60e51b815260206004820152601860248201527f496e76616c6964206e756d626572206f6620746f6b656e7300000000000000006044820152606401610260565b6001546040516394d8314160e01b81526001600160a01b039091169081906394d83141906105679086908690339060040161123a565b600060405180830381600087803b15801561058157600080fd5b505af1158015610595573d6000803e3d6000fd5b50505050505050565b6000546001600160a01b031633146105f85760405162461bcd60e51b815260206004820181905260248201527f4f776e61626c653a2063616c6c6572206973206e6f7420746865206f776e65726044820152606401610260565b6000816001600160a01b03164760405160006040518083038185875af1925050503d8060008114610645576040519150601f19603f3d011682016040523d82523d6000602084013e61064a565b606091505b505090508061069b5760405162461bcd60e51b815260206004820152601460248201527f4661696c656420746f2073656e642045746865720000000000000000000000006044820152606401610260565b5050565b604080517f2e94c13f585cae1210aa4eb7a2803eca3234a6ac55332cbffd51505498f3e2ad60208201526001600160a01b03841691810191909152606081018290526000906107069060800160405160208183030381529060405280519060200120610a16565b905060006107148286610a85565b6002549091506001600160a01b038083169116146107745760405162461bcd60e51b815260206004820152601160248201527f496e76616c6964207369676e61747572650000000000000000000000000000006044820152606401610260565b5050505050565b6000546001600160a01b031633146107d55760405162461bcd60e51b815260206004820181905260248201527f4f776e61626c653a2063616c6c6572206973206e6f7420746865206f776e65726044820152606401610260565b6002805473ffffffffffffffffffffffffffffffffffffffff19166001600160a01b0392909216919091179055565b6000546001600160a01b0316331461085e5760405162461bcd60e51b815260206004820181905260248201527f4f776e61626c653a2063616c6c6572206973206e6f7420746865206f776e65726044820152606401610260565b6108686000610aa9565b565b6000546001600160a01b031633146108c45760405162461bcd60e51b815260206004820181905260248201527f4f776e61626c653a2063616c6c6572206973206e6f7420746865206f776e65726044820152606401610260565b6108d060038383610fdd565b505050565b600080805b8381101561092d576003818154811061090357634e487b7160e01b600052603260045260246000fd5b90600052602060002001548261091991906112e2565b91506109268160016112e2565b90506108da565b5092915050565b6000546001600160a01b0316331461098e5760405162461bcd60e51b815260206004820181905260248201527f4f776e61626c653a2063616c6c6572206973206e6f7420746865206f776e65726044820152606401610260565b6001600160a01b038116610a0a5760405162461bcd60e51b815260206004820152602660248201527f4f776e61626c653a206e6577206f776e657220697320746865207a65726f206160448201527f64647265737300000000000000000000000000000000000000000000000000006064820152608401610260565b610a1381610aa9565b50565b6000610a7f610a23610b06565b836040517f19010000000000000000000000000000000000000000000000000000000000006020820152602281018390526042810182905260009060620160405160208183030381529060405280519060200120905092915050565b92915050565b6000806000610a948585610c2d565b91509150610aa181610c9d565b509392505050565b600080546001600160a01b0383811673ffffffffffffffffffffffffffffffffffffffff19831681178455604051919092169283917f8be0079c531659141344cd1fd0a4f28419497f9722a3daafe3b4186f6b6457e09190a35050565b6000306001600160a01b037f000000000000000000000000000000000000000000000000000000000000000016148015610b5f57507f000000000000000000000000000000000000000000000000000000000000000046145b15610b8957507f000000000000000000000000000000000000000000000000000000000000000090565b50604080517f00000000000000000000000000000000000000000000000000000000000000006020808301919091527f0000000000000000000000000000000000000000000000000000000000000000828401527f000000000000000000000000000000000000000000000000000000000000000060608301524660808301523060a0808401919091528351808403909101815260c0909201909252805191012090565b600080825160411415610c645760208301516040840151606085015160001a610c5887828585610e9e565b94509450505050610c96565b825160401415610c8e5760208301516040840151610c83868383610f8b565b935093505050610c96565b506000905060025b9250929050565b6000816004811115610cbf57634e487b7160e01b600052602160045260246000fd5b1415610cc85750565b6001816004811115610cea57634e487b7160e01b600052602160045260246000fd5b1415610d385760405162461bcd60e51b815260206004820152601860248201527f45434453413a20696e76616c6964207369676e617475726500000000000000006044820152606401610260565b6002816004811115610d5a57634e487b7160e01b600052602160045260246000fd5b1415610da85760405162461bcd60e51b815260206004820152601f60248201527f45434453413a20696e76616c6964207369676e6174757265206c656e677468006044820152606401610260565b6003816004811115610dca57634e487b7160e01b600052602160045260246000fd5b1415610e235760405162461bcd60e51b815260206004820152602260248201527f45434453413a20696e76616c6964207369676e6174757265202773272076616c604482015261756560f01b6064820152608401610260565b6004816004811115610e4557634e487b7160e01b600052602160045260246000fd5b1415610a135760405162461bcd60e51b815260206004820152602260248201527f45434453413a20696e76616c6964207369676e6174757265202776272076616c604482015261756560f01b6064820152608401610260565b6000807f7fffffffffffffffffffffffffffffff5d576e7357a4501ddfe92f46681b20a0831115610ed55750600090506003610f82565b8460ff16601b14158015610eed57508460ff16601c14155b15610efe5750600090506004610f82565b6040805160008082526020820180845289905260ff881692820192909252606081018690526080810185905260019060a0016020604051602081039080840390855afa158015610f52573d6000803e3d6000fd5b5050604051601f1901519150506001600160a01b038116610f7b57600060019250925050610f82565b9150600090505b94509492505050565b6000807f7fffffffffffffffffffffffffffffffffffffffffffffffffffffffffffffff831681610fc160ff86901c601b6112e2565b9050610fcf87828885610e9e565b935093505050935093915050565b828054828255906000526020600020908101928215611018579160200282015b82811115611018578235825591602001919060010190610ffd565b50611024929150611028565b5090565b5b808211156110245760008155600101611029565b80356110488161131c565b919050565b60008083601f84011261105e578081fd5b50813567ffffffffffffffff811115611075578182fd5b6020830191508360208260051b8501011115610c9657600080fd5b6000602082840312156110a1578081fd5b81356110ac8161131c565b9392505050565b600080602083850312156110c5578081fd5b823567ffffffffffffffff8111156110db578182fd5b6110e78582860161104d565b90969095509350505050565b60008060008060408587031215611108578182fd5b843567ffffffffffffffff8082111561111f578384fd5b61112b8883890161104d565b90965094506020870135915080821115611143578384fd5b506111508782880161104d565b95989497509550505050565b600080600060608486031215611170578283fd5b833567ffffffffffffffff80821115611187578485fd5b818601915086601f83011261119a578485fd5b8135818111156111ac576111ac611306565b604051601f8201601f19908116603f011681019083821181831017156111d4576111d4611306565b816040528281528960208487010111156111ec578788fd5b82602086016020830137876020848301015280975050505050506112126020850161103d565b9150604084013590509250925092565b600060208284031215611233578081fd5b5035919050565b6040815282604082015260007f07ffffffffffffffffffffffffffffffffffffffffffffffffffffffffffffff841115611272578081fd5b8360051b8086606085013782016060019081526001600160a01b039290921660209091015292915050565b6000808335601e198436030181126112b3578283fd5b83018035915067ffffffffffffffff8211156112cd578283fd5b602001915036819003821315610c9657600080fd5b6000821982111561130157634e487b7160e01b81526011600452602481fd5b500190565b634e487b7160e01b600052604160045260246000fd5b6001600160a01b0381168114610a1357600080fdfea2646970667358221220831af50bb1173b887c28e391b1a247b760d5afb8f8371ba45f0b5c07e727bcf964736f6c63430008040033",
  "linkReferences": {},
  "deployedLinkReferences": {}
}