{
  "_format": "hh-sol-artifact-1",
  "contractName": "ERC721MinterPauserBuyable",
  "sourceName": "contracts/polygon/ERC721/ERC721MinterPauserBuyable.sol",
  "abi": [
    {
      "inputs": [
        {
          "internalType": "string",
          "name": "name",
          "type": "string"
        },
        {
          "internalType": "string",
          "name": "symbol",
          "type": "string"
        },
        {
          "internalType": "address",
          "name": "minter",
          "type": "address"
        },
        {
          "internalType": "string",
          "name": "initialURI",
          "type": "string"
        }
      ],
      "stateMutability": "nonpayable",
      "type": "constructor"
    },
    {
      "anonymous": false,
      "inputs": [
        {
          "indexed": true,
          "internalType": "address",
          "name": "owner",
          "type": "address"
        },
        {
          "indexed": true,
          "internalType": "address",
          "name": "approved",
          "type": "address"
        },
        {
          "indexed": true,
          "internalType": "uint256",
          "name": "tokenId",
          "type": "uint256"
        }
      ],
      "name": "Approval",
      "type": "event"
    },
    {
      "anonymous": false,
      "inputs": [
        {
          "indexed": true,
          "internalType": "address",
          "name": "owner",
          "type": "address"
        },
        {
          "indexed": true,
          "internalType": "address",
          "name": "operator",
          "type": "address"
        },
        {
          "indexed": false,
          "internalType": "bool",
          "name": "approved",
          "type": "bool"
        }
      ],
      "name": "ApprovalForAll",
      "type": "event"
    },
    {
      "anonymous": false,
      "inputs": [
        {
          "indexed": false,
          "internalType": "address",
          "name": "userAddress",
          "type": "address"
        },
        {
          "indexed": false,
          "internalType": "address payable",
          "name": "relayerAddress",
          "type": "address"
        },
        {
          "indexed": false,
          "internalType": "bytes",
          "name": "functionSignature",
          "type": "bytes"
        }
      ],
      "name": "MetaTransactionExecuted",
      "type": "event"
    },
    {
      "anonymous": false,
      "inputs": [
        {
          "indexed": true,
          "internalType": "address",
          "name": "previousOwner",
          "type": "address"
        },
        {
          "indexed": true,
          "internalType": "address",
          "name": "newOwner",
          "type": "address"
        }
      ],
      "name": "OwnershipTransferred",
      "type": "event"
    },
    {
      "anonymous": false,
      "inputs": [
        {
          "indexed": false,
          "internalType": "address",
          "name": "account",
          "type": "address"
        }
      ],
      "name": "Paused",
      "type": "event"
    },
    {
      "anonymous": false,
      "inputs": [
        {
          "indexed": true,
          "internalType": "address",
          "name": "from",
          "type": "address"
        },
        {
          "indexed": true,
          "internalType": "address",
          "name": "to",
          "type": "address"
        },
        {
          "indexed": true,
          "internalType": "uint256",
          "name": "tokenId",
          "type": "uint256"
        }
      ],
      "name": "Transfer",
      "type": "event"
    },
    {
      "anonymous": false,
      "inputs": [
        {
          "indexed": false,
          "internalType": "address",
          "name": "account",
          "type": "address"
        }
      ],
      "name": "Unpaused",
      "type": "event"
    },
    {
      "inputs": [],
      "name": "ERC712_VERSION",
      "outputs": [
        {
          "internalType": "string",
          "name": "",
          "type": "string"
        }
      ],
      "stateMutability": "view",
      "type": "function"
    },
    {
      "inputs": [
        {
          "internalType": "uint256",
          "name": "_tokenId",
          "type": "uint256"
        },
        {
          "internalType": "string",
          "name": "_tokenURI",
          "type": "string"
        }
      ],
      "name": "_setTokenURI",
      "outputs": [],
      "stateMutability": "nonpayable",
      "type": "function"
    },
    {
      "inputs": [
        {
          "internalType": "address",
          "name": "to",
          "type": "address"
        },
        {
          "internalType": "uint256",
          "name": "tokenId",
          "type": "uint256"
        }
      ],
      "name": "approve",
      "outputs": [],
      "stateMutability": "nonpayable",
      "type": "function"
    },
    {
      "inputs": [
        {
          "internalType": "address",
          "name": "owner",
          "type": "address"
        }
      ],
      "name": "balanceOf",
      "outputs": [
        {
          "internalType": "uint256",
          "name": "",
          "type": "uint256"
        }
      ],
      "stateMutability": "view",
      "type": "function"
    },
    {
      "inputs": [
        {
          "internalType": "address payable",
          "name": "_to",
          "type": "address"
        }
      ],
      "name": "claimTreasury",
      "outputs": [],
      "stateMutability": "nonpayable",
      "type": "function"
    },
    {
      "inputs": [
        {
          "internalType": "address",
          "name": "userAddress",
          "type": "address"
        },
        {
          "internalType": "bytes",
          "name": "functionSignature",
          "type": "bytes"
        },
        {
          "internalType": "bytes32",
          "name": "sigR",
          "type": "bytes32"
        },
        {
          "internalType": "bytes32",
          "name": "sigS",
          "type": "bytes32"
        },
        {
          "internalType": "uint8",
          "name": "sigV",
          "type": "uint8"
        }
      ],
      "name": "executeMetaTransaction",
      "outputs": [
        {
          "internalType": "bytes",
          "name": "",
          "type": "bytes"
        }
      ],
      "stateMutability": "payable",
      "type": "function"
    },
    {
      "inputs": [
        {
          "internalType": "uint256",
          "name": "tokenId",
          "type": "uint256"
        }
      ],
      "name": "getApproved",
      "outputs": [
        {
          "internalType": "address",
          "name": "",
          "type": "address"
        }
      ],
      "stateMutability": "view",
      "type": "function"
    },
    {
      "inputs": [],
      "name": "getChainId",
      "outputs": [
        {
          "internalType": "uint256",
          "name": "",
          "type": "uint256"
        }
      ],
      "stateMutability": "view",
      "type": "function"
    },
    {
      "inputs": [],
      "name": "getDomainSeperator",
      "outputs": [
        {
          "internalType": "bytes32",
          "name": "",
          "type": "bytes32"
        }
      ],
      "stateMutability": "view",
      "type": "function"
    },
    {
      "inputs": [
        {
          "internalType": "address",
          "name": "user",
          "type": "address"
        }
      ],
      "name": "getNonce",
      "outputs": [
        {
          "internalType": "uint256",
          "name": "nonce",
          "type": "uint256"
        }
      ],
      "stateMutability": "view",
      "type": "function"
    },
    {
      "inputs": [
        {
          "internalType": "address",
          "name": "_owner",
          "type": "address"
        },
        {
          "internalType": "address",
          "name": "_operator",
          "type": "address"
        }
      ],
      "name": "isApprovedForAll",
      "outputs": [
        {
          "internalType": "bool",
          "name": "isOperator",
          "type": "bool"
        }
      ],
      "stateMutability": "view",
      "type": "function"
    },
    {
      "inputs": [
        {
          "internalType": "uint256[]",
          "name": "tokens",
          "type": "uint256[]"
        },
        {
          "internalType": "address",
          "name": "_to",
          "type": "address"
        }
      ],
      "name": "mintTo",
      "outputs": [],
      "stateMutability": "nonpayable",
      "type": "function"
    },
    {
      "inputs": [],
      "name": "name",
      "outputs": [
        {
          "internalType": "string",
          "name": "",
          "type": "string"
        }
      ],
      "stateMutability": "view",
      "type": "function"
    },
    {
      "inputs": [],
      "name": "owner",
      "outputs": [
        {
          "internalType": "address",
          "name": "",
          "type": "address"
        }
      ],
      "stateMutability": "view",
      "type": "function"
    },
    {
      "inputs": [
        {
          "internalType": "uint256",
          "name": "tokenId",
          "type": "uint256"
        }
      ],
      "name": "ownerOf",
      "outputs": [
        {
          "internalType": "address",
          "name": "",
          "type": "address"
        }
      ],
      "stateMutability": "view",
      "type": "function"
    },
    {
      "inputs": [
        {
          "internalType": "bool",
          "name": "stop",
          "type": "bool"
        }
      ],
      "name": "pause",
      "outputs": [],
      "stateMutability": "nonpayable",
      "type": "function"
    },
    {
      "inputs": [],
      "name": "paused",
      "outputs": [
        {
          "internalType": "bool",
          "name": "",
          "type": "bool"
        }
      ],
      "stateMutability": "view",
      "type": "function"
    },
    {
      "inputs": [],
      "name": "renounceOwnership",
      "outputs": [],
      "stateMutability": "nonpayable",
      "type": "function"
    },
    {
      "inputs": [
        {
          "internalType": "address",
          "name": "from",
          "type": "address"
        },
        {
          "internalType": "address",
          "name": "to",
          "type": "address"
        },
        {
          "internalType": "uint256",
          "name": "tokenId",
          "type": "uint256"
        }
      ],
      "name": "safeTransferFrom",
      "outputs": [],
      "stateMutability": "nonpayable",
      "type": "function"
    },
    {
      "inputs": [
        {
          "internalType": "address",
          "name": "from",
          "type": "address"
        },
        {
          "internalType": "address",
          "name": "to",
          "type": "address"
        },
        {
          "internalType": "uint256",
          "name": "tokenId",
          "type": "uint256"
        },
        {
          "internalType": "bytes",
          "name": "_data",
          "type": "bytes"
        }
      ],
      "name": "safeTransferFrom",
      "outputs": [],
      "stateMutability": "nonpayable",
      "type": "function"
    },
    {
      "inputs": [
        {
          "internalType": "address",
          "name": "operator",
          "type": "address"
        },
        {
          "internalType": "bool",
          "name": "approved",
          "type": "bool"
        }
      ],
      "name": "setApprovalForAll",
      "outputs": [],
      "stateMutability": "nonpayable",
      "type": "function"
    },
    {
      "inputs": [
        {
          "internalType": "address",
          "name": "newMinter",
          "type": "address"
        }
      ],
      "name": "setMinter",
      "outputs": [],
      "stateMutability": "nonpayable",
      "type": "function"
    },
    {
      "inputs": [
        {
          "internalType": "bytes4",
          "name": "interfaceId",
          "type": "bytes4"
        }
      ],
      "name": "supportsInterface",
      "outputs": [
        {
          "internalType": "bool",
          "name": "",
          "type": "bool"
        }
      ],
      "stateMutability": "view",
      "type": "function"
    },
    {
      "inputs": [],
      "name": "symbol",
      "outputs": [
        {
          "internalType": "string",
          "name": "",
          "type": "string"
        }
      ],
      "stateMutability": "view",
      "type": "function"
    },
    {
      "inputs": [
        {
          "internalType": "uint256",
          "name": "index",
          "type": "uint256"
        }
      ],
      "name": "tokenByIndex",
      "outputs": [
        {
          "internalType": "uint256",
          "name": "",
          "type": "uint256"
        }
      ],
      "stateMutability": "view",
      "type": "function"
    },
    {
      "inputs": [
        {
          "internalType": "address",
          "name": "owner",
          "type": "address"
        },
        {
          "internalType": "uint256",
          "name": "index",
          "type": "uint256"
        }
      ],
      "name": "tokenOfOwnerByIndex",
      "outputs": [
        {
          "internalType": "uint256",
          "name": "",
          "type": "uint256"
        }
      ],
      "stateMutability": "view",
      "type": "function"
    },
    {
      "inputs": [
        {
          "internalType": "uint256",
          "name": "_tokenId",
          "type": "uint256"
        }
      ],
      "name": "tokenURI",
      "outputs": [
        {
          "internalType": "string",
          "name": "",
          "type": "string"
        }
      ],
      "stateMutability": "view",
      "type": "function"
    },
    {
      "inputs": [],
      "name": "totalSupply",
      "outputs": [
        {
          "internalType": "uint256",
          "name": "",
          "type": "uint256"
        }
      ],
      "stateMutability": "view",
      "type": "function"
    },
    {
      "inputs": [
        {
          "internalType": "address",
          "name": "from",
          "type": "address"
        },
        {
          "internalType": "address",
          "name": "to",
          "type": "address"
        },
        {
          "internalType": "uint256",
          "name": "tokenId",
          "type": "uint256"
        }
      ],
      "name": "transferFrom",
      "outputs": [],
      "stateMutability": "nonpayable",
      "type": "function"
    },
    {
      "inputs": [
        {
          "internalType": "address",
          "name": "newOwner",
          "type": "address"
        }
      ],
      "name": "transferOwnership",
      "outputs": [],
      "stateMutability": "nonpayable",
      "type": "function"
    },
    {
      "inputs": [],
      "name": "uriPrefix",
      "outputs": [
        {
          "internalType": "string",
          "name": "",
          "type": "string"
        }
      ],
      "stateMutability": "view",
      "type": "function"
    }
  ],
  "bytecode": "0x600a805460ff1916905560a06040819052600060808190526200002591600f91620003d8565b5060006010553480156200003857600080fd5b50604051620034c6380380620034c68339810160408190526200005b9162000531565b8383838282816000908051906020019062000078929190620003d8565b5080516200008e906001906020840190620003d8565b505050620000ab620000a56200011160201b60201c565b6200012d565b600d805460ff60a01b19169055620000c3836200017f565b601180546001600160a01b0319166001600160a01b039290921691909117905550620000f1905082620001e4565b805162000106906013906020840190620003d8565b505050505062000632565b600062000128620002d760201b620018ba1760201c565b905090565b600d80546001600160a01b038381166001600160a01b0319831681179093556040519116919082907f8be0079c531659141344cd1fd0a4f28419497f9722a3daafe3b4186f6b6457e090600090a35050565b600a5460ff1615620001c95760405162461bcd60e51b815260206004820152600e60248201526d185b1c9958591e481a5b9a5d195960921b60448201526064015b60405180910390fd5b620001d48162000336565b50600a805460ff19166001179055565b620001ee62000111565b6001600160a01b03166200020a600d546001600160a01b031690565b6001600160a01b031614620002625760405162461bcd60e51b815260206004820181905260248201527f4f776e61626c653a2063616c6c6572206973206e6f7420746865206f776e65726044820152606401620001c0565b6001600160a01b038116620002c95760405162461bcd60e51b815260206004820152602660248201527f4f776e61626c653a206e6577206f776e657220697320746865207a65726f206160448201526564647265737360d01b6064820152608401620001c0565b620002d4816200012d565b50565b6000333014156200033057600080368080601f0160208091040260200160405190810160405280939291908181526020018383808284376000920191909152505050503601516001600160a01b03169150620003339050565b50335b90565b6040518060800160405280604f815260200162003477604f9139805160209182012082519282019290922060408051808201825260018152603160f81b90840152805180840194909452838101919091527fc89efdaa54c0f20c7adf612882df0950f5a951637e0307cdcb4c672f298b8bc660608401523060808401524660a0808501919091528151808503909101815260c090930190528151910120600b55565b828054620003e690620005df565b90600052602060002090601f0160209004810192826200040a576000855562000455565b82601f106200042557805160ff191683800117855562000455565b8280016001018555821562000455579182015b828111156200045557825182559160200191906001019062000438565b506200046392915062000467565b5090565b5b8082111562000463576000815560010162000468565b600082601f8301126200048f578081fd5b81516001600160401b0380821115620004ac57620004ac6200061c565b604051601f8301601f19908116603f01168101908282118183101715620004d757620004d76200061c565b81604052838152602092508683858801011115620004f3578485fd5b8491505b83821015620005165785820183015181830184015290820190620004f7565b838211156200052757848385830101525b9695505050505050565b6000806000806080858703121562000547578384fd5b84516001600160401b03808211156200055e578586fd5b6200056c888389016200047e565b9550602087015191508082111562000582578485fd5b62000590888389016200047e565b604088015190955091506001600160a01b0382168214620005af578384fd5b606087015191935080821115620005c4578283fd5b50620005d3878288016200047e565b91505092959194509250565b600181811c90821680620005f457607f821691505b602082108114156200061657634e487b7160e01b600052602260045260246000fd5b50919050565b634e487b7160e01b600052604160045260246000fd5b612e3580620006426000396000f3fe6080604052600436106101d85760003560e01c806346f61ca81161010257806394d8314111610095578063c87b56dd11610064578063c87b56dd14610563578063e985e9c514610583578063f2fde38b146105a3578063fca3b5aa146105c357600080fd5b806394d83141146104ee57806395d89b411461050e578063a22cb46514610523578063b88d4fde1461054357600080fd5b80636352211e116100d15780636352211e1461047b57806370a082311461049b578063715018a6146104bb5780638da5cb5b146104d057600080fd5b806346f61ca8146104075780634f6ccce7146104275780635c975abb1461044757806362b99ad41461046657600080fd5b80630f7e59701161017a5780632d0335ab116101495780632d0335ab1461037e5780632f745c59146103b45780633408e470146103d457806342842e0e146103e757600080fd5b80630f7e5970146102e157806318160ddd1461032a57806320379ee51461034957806323b872dd1461035e57600080fd5b806306fdde03116101b657806306fdde0314610254578063081812fc14610276578063095ea7b3146102ae5780630c53c51c146102ce57600080fd5b806301538868146101dd57806301ffc9a7146101ff57806302329a2914610234575b600080fd5b3480156101e957600080fd5b506101fd6101f8366004612b7a565b6105e3565b005b34801561020b57600080fd5b5061021f61021a366004612b2a565b61078e565b60405190151581526020015b60405180910390f35b34801561024057600080fd5b506101fd61024f366004612b10565b6107d2565b34801561026057600080fd5b50610269610864565b60405161022b9190612cc2565b34801561028257600080fd5b50610296610291366004612b62565b6108f6565b6040516001600160a01b03909116815260200161022b565b3480156102ba57600080fd5b506101fd6102c9366004612a64565b61098b565b6102696102dc3660046129e9565b610aca565b3480156102ed57600080fd5b506102696040518060400160405280600181526020017f310000000000000000000000000000000000000000000000000000000000000081525081565b34801561033657600080fd5b506008545b60405190815260200161022b565b34801561035557600080fd5b50600b5461033b565b34801561036a57600080fd5b506101fd61037936600461290b565b610cd0565b34801561038a57600080fd5b5061033b6103993660046128b7565b6001600160a01b03166000908152600c602052604090205490565b3480156103c057600080fd5b5061033b6103cf366004612a64565b610d5e565b3480156103e057600080fd5b504661033b565b3480156103f357600080fd5b506101fd61040236600461290b565b610e06565b34801561041357600080fd5b506101fd6104223660046128b7565b610e21565b34801561043357600080fd5b5061033b610442366004612b62565b610f41565b34801561045357600080fd5b50600d54600160a01b900460ff1661021f565b34801561047257600080fd5b50610269610ff3565b34801561048757600080fd5b50610296610496366004612b62565b611081565b3480156104a757600080fd5b5061033b6104b63660046128b7565b61110c565b3480156104c757600080fd5b506101fd6111a6565b3480156104dc57600080fd5b50600d546001600160a01b0316610296565b3480156104fa57600080fd5b506101fd610509366004612a8f565b61122b565b34801561051a57600080fd5b506102696113ce565b34801561052f57600080fd5b506101fd61053e3660046129b5565b6113dd565b34801561054f57600080fd5b506101fd61055e36600461294b565b6113ef565b34801561056f57600080fd5b5061026961057e366004612b62565b61147e565b34801561058f57600080fd5b5061021f61059e3660046128d3565b6116c1565b3480156105af57600080fd5b506101fd6105be3660046128b7565b611721565b3480156105cf57600080fd5b506101fd6105de3660046128b7565b61181f565b6105eb611917565b6001600160a01b0316610606600d546001600160a01b031690565b6001600160a01b0316146106615760405162461bcd60e51b815260206004820181905260248201527f4f776e61626c653a2063616c6c6572206973206e6f7420746865206f776e657260448201526064015b60405180910390fd5b6000828152600260205260409020546001600160a01b03166106c55760405162461bcd60e51b815260206004820152601c60248201527f55524920736574206f66206e6f6e6578697374656e7420746f6b656e000000006044820152606401610658565b600082815260126020526040812080546106de90612d30565b80601f016020809104026020016040519081016040528092919081815260200182805461070a90612d30565b80156107575780601f1061072c57610100808354040283529160200191610757565b820191906000526020600020905b81548152906001019060200180831161073a57829003601f168201915b50505050509050805160001415610789576000838152601260209081526040909120835161078792850190612774565b505b505050565b60006001600160e01b031982167f780e9d630000000000000000000000000000000000000000000000000000000014806107cc57506107cc82611926565b92915050565b6107da611917565b6001600160a01b03166107f5600d546001600160a01b031690565b6001600160a01b03161461084b5760405162461bcd60e51b815260206004820181905260248201527f4f776e61626c653a2063616c6c6572206973206e6f7420746865206f776e65726044820152606401610658565b801561085c576108596119c1565b50565b610859611a74565b60606000805461087390612d30565b80601f016020809104026020016040519081016040528092919081815260200182805461089f90612d30565b80156108ec5780601f106108c1576101008083540402835291602001916108ec565b820191906000526020600020905b8154815290600101906020018083116108cf57829003601f168201915b5050505050905090565b6000818152600260205260408120546001600160a01b031661096f5760405162461bcd60e51b815260206004820152602c60248201527f4552433732313a20617070726f76656420717565727920666f72206e6f6e657860448201526b34b9ba32b73a103a37b5b2b760a11b6064820152608401610658565b506000908152600460205260409020546001600160a01b031690565b600061099682611081565b9050806001600160a01b0316836001600160a01b03161415610a205760405162461bcd60e51b815260206004820152602160248201527f4552433732313a20617070726f76616c20746f2063757272656e74206f776e6560448201527f72000000000000000000000000000000000000000000000000000000000000006064820152608401610658565b806001600160a01b0316610a32611917565b6001600160a01b03161480610a4e5750610a4e8161059e611917565b610ac05760405162461bcd60e51b815260206004820152603860248201527f4552433732313a20617070726f76652063616c6c6572206973206e6f74206f7760448201527f6e6572206e6f7220617070726f76656420666f7220616c6c00000000000000006064820152608401610658565b6107898383611b03565b60408051606081810183526001600160a01b0388166000818152600c602090815290859020548452830152918101869052610b088782878787611b71565b610b7a5760405162461bcd60e51b815260206004820152602160248201527f5369676e657220616e64207369676e617475726520646f206e6f74206d61746360448201527f68000000000000000000000000000000000000000000000000000000000000006064820152608401610658565b6001600160a01b0387166000908152600c6020526040902054610b9e906001611c79565b6001600160a01b0388166000908152600c60205260409081902091909155517f5845892132946850460bff5a0083f71031bc5bf9aadcd40f1de79423eac9b10b90610bee90899033908a90612c51565b60405180910390a1600080306001600160a01b0316888a604051602001610c16929190612c1a565b60408051601f1981840301815290829052610c3091612bfe565b6000604051808303816000865af19150503d8060008114610c6d576040519150601f19603f3d011682016040523d82523d6000602084013e610c72565b606091505b509150915081610cc45760405162461bcd60e51b815260206004820152601c60248201527f46756e6374696f6e2063616c6c206e6f74207375636365737366756c000000006044820152606401610658565b98975050505050505050565b610ce1610cdb611917565b82611c85565b610d535760405162461bcd60e51b815260206004820152603160248201527f4552433732313a207472616e736665722063616c6c6572206973206e6f74206f60448201527f776e6572206e6f7220617070726f7665640000000000000000000000000000006064820152608401610658565b610789838383611d5c565b6000610d698361110c565b8210610ddd5760405162461bcd60e51b815260206004820152602b60248201527f455243373231456e756d657261626c653a206f776e657220696e646578206f7560448201527f74206f6620626f756e64730000000000000000000000000000000000000000006064820152608401610658565b506001600160a01b03919091166000908152600660209081526040808320938352929052205490565b610789838383604051806020016040528060008152506113ef565b610e29611917565b6001600160a01b0316610e44600d546001600160a01b031690565b6001600160a01b031614610e9a5760405162461bcd60e51b815260206004820181905260248201527f4f776e61626c653a2063616c6c6572206973206e6f7420746865206f776e65726044820152606401610658565b6000816001600160a01b03164760405160006040518083038185875af1925050503d8060008114610ee7576040519150601f19603f3d011682016040523d82523d6000602084013e610eec565b606091505b5050905080610f3d5760405162461bcd60e51b815260206004820152601560248201527f4661696c656420746f2073656e6420616d6f756e7400000000000000000000006044820152606401610658565b5050565b6000610f4c60085490565b8210610fc05760405162461bcd60e51b815260206004820152602c60248201527f455243373231456e756d657261626c653a20676c6f62616c20696e646578206f60448201527f7574206f6620626f756e647300000000000000000000000000000000000000006064820152608401610658565b60088281548110610fe157634e487b7160e01b600052603260045260246000fd5b90600052602060002001549050919050565b600f805461100090612d30565b80601f016020809104026020016040519081016040528092919081815260200182805461102c90612d30565b80156110795780601f1061104e57610100808354040283529160200191611079565b820191906000526020600020905b81548152906001019060200180831161105c57829003601f168201915b505050505081565b6000818152600260205260408120546001600160a01b0316806107cc5760405162461bcd60e51b815260206004820152602960248201527f4552433732313a206f776e657220717565727920666f72206e6f6e657869737460448201527f656e7420746f6b656e00000000000000000000000000000000000000000000006064820152608401610658565b60006001600160a01b03821661118a5760405162461bcd60e51b815260206004820152602a60248201527f4552433732313a2062616c616e636520717565727920666f7220746865207a6560448201527f726f2061646472657373000000000000000000000000000000000000000000006064820152608401610658565b506001600160a01b031660009081526003602052604090205490565b6111ae611917565b6001600160a01b03166111c9600d546001600160a01b031690565b6001600160a01b03161461121f5760405162461bcd60e51b815260206004820181905260248201527f4f776e61626c653a2063616c6c6572206973206e6f7420746865206f776e65726044820152606401610658565b6112296000611f34565b565b611233611917565b6011546001600160a01b039081169116146112905760405162461bcd60e51b815260206004820181905260248201527f4f776e61626c653a2063616c6c6572206973206e6f7420746865206f776e65726044820152606401610658565b60005b82811015610787576112e28484838181106112be57634e487b7160e01b600052603260045260246000fd5b905060200201356000908152600260205260409020546001600160a01b0316151590565b1561132f5760405162461bcd60e51b815260206004820152601460248201527f546f6b656e20616c72656164792065786973742e0000000000000000000000006044820152606401610658565b604051806020016040528060008152506012600086868581811061136357634e487b7160e01b600052603260045260246000fd5b905060200201358152602001908152602001600020908051906020019061138b929190612774565b506113bc828585848181106113b057634e487b7160e01b600052603260045260246000fd5b90506020020135611f86565b6113c7816001612cd5565b9050611293565b60606001805461087390612d30565b610f3d6113e8611917565b83836120d4565b6114006113fa611917565b83611c85565b6114725760405162461bcd60e51b815260206004820152603160248201527f4552433732313a207472616e736665722063616c6c6572206973206e6f74206f60448201527f776e6572206e6f7220617070726f7665640000000000000000000000000000006064820152608401610658565b610787848484846121a3565b6000818152600260205260409020546060906001600160a01b03166114e55760405162461bcd60e51b815260206004820152601460248201527f546f6b656e20646f6573206e6f742065786973740000000000000000000000006044820152606401610658565b600082815260126020526040812080546114fe90612d30565b80601f016020809104026020016040519081016040528092919081815260200182805461152a90612d30565b80156115775780601f1061154c57610100808354040283529160200191611577565b820191906000526020600020905b81548152906001019060200180831161155a57829003601f168201915b5050505050905080516000141561161b576013805461159590612d30565b80601f01602080910402602001604051908101604052809291908181526020018280546115c190612d30565b801561160e5780601f106115e35761010080835404028352916020019161160e565b820191906000526020600020905b8154815290600101906020018083116115f157829003601f168201915b5050505050915050919050565b6000838152601260205260408120805461163490612d30565b80601f016020809104026020016040519081016040528092919081815260200182805461166090612d30565b80156116ad5780601f10611682576101008083540402835291602001916116ad565b820191906000526020600020905b81548152906001019060200180831161169057829003601f168201915b509398975050505050505050565b50919050565b60006001600160a01b0382167358807bad0b376efc12f5ad86aac70e78ed67deae14156116f0575060016107cc565b6001600160a01b0380841660009081526005602090815260408083209386168352929052205460ff165b9392505050565b611729611917565b6001600160a01b0316611744600d546001600160a01b031690565b6001600160a01b03161461179a5760405162461bcd60e51b815260206004820181905260248201527f4f776e61626c653a2063616c6c6572206973206e6f7420746865206f776e65726044820152606401610658565b6001600160a01b0381166118165760405162461bcd60e51b815260206004820152602660248201527f4f776e61626c653a206e6577206f776e657220697320746865207a65726f206160448201527f64647265737300000000000000000000000000000000000000000000000000006064820152608401610658565b61085981611f34565b611827611917565b6001600160a01b0316611842600d546001600160a01b031690565b6001600160a01b0316146118985760405162461bcd60e51b815260206004820181905260248201527f4f776e61626c653a2063616c6c6572206973206e6f7420746865206f776e65726044820152606401610658565b601180546001600160a01b0319166001600160a01b0392909216919091179055565b60003330141561191157600080368080601f0160208091040260200160405190810160405280939291908181526020018383808284376000920191909152505050503601516001600160a01b031691506119149050565b50335b90565b60006119216118ba565b905090565b60006001600160e01b031982167f80ac58cd00000000000000000000000000000000000000000000000000000000148061198957506001600160e01b031982167f5b5e139f00000000000000000000000000000000000000000000000000000000145b806107cc57507f01ffc9a7000000000000000000000000000000000000000000000000000000006001600160e01b03198316146107cc565b600d54600160a01b900460ff1615611a1b5760405162461bcd60e51b815260206004820152601060248201527f5061757361626c653a20706175736564000000000000000000000000000000006044820152606401610658565b600d805460ff60a01b1916600160a01b1790557f62e78cea01bee320cd4e420270b5ea74000d11b0c9f74754ebdbfc544b05a258611a57611917565b6040516001600160a01b03909116815260200160405180910390a1565b600d54600160a01b900460ff16611acd5760405162461bcd60e51b815260206004820152601460248201527f5061757361626c653a206e6f74207061757365640000000000000000000000006044820152606401610658565b600d805460ff60a01b191690557f5db9ee0a495bf2e6ff9c91a7834c1ba4fdd244a5e8aa4e537bd38aeae4b073aa611a57611917565b600081815260046020526040902080546001600160a01b0319166001600160a01b0384169081179091558190611b3882611081565b6001600160a01b03167f8c5be1e5ebec7d5bd14f71427d1e84f3dd0314c0f7b2291e5b200ac8c7c3b92560405160405180910390a45050565b60006001600160a01b038616611bef5760405162461bcd60e51b815260206004820152602560248201527f4e61746976654d6574615472616e73616374696f6e3a20494e56414c49445f5360448201527f49474e45520000000000000000000000000000000000000000000000000000006064820152608401610658565b6001611c02611bfd8761222c565b6122a9565b6040805160008152602081018083529290925260ff851690820152606081018690526080810185905260a0016020604051602081039080840390855afa158015611c50573d6000803e3d6000fd5b505050602060405103516001600160a01b0316866001600160a01b031614905095945050505050565b600061171a8284612cd5565b6000818152600260205260408120546001600160a01b0316611cfe5760405162461bcd60e51b815260206004820152602c60248201527f4552433732313a206f70657261746f7220717565727920666f72206e6f6e657860448201526b34b9ba32b73a103a37b5b2b760a11b6064820152608401610658565b6000611d0983611081565b9050806001600160a01b0316846001600160a01b03161480611d445750836001600160a01b0316611d39846108f6565b6001600160a01b0316145b80611d545750611d5481856116c1565b949350505050565b826001600160a01b0316611d6f82611081565b6001600160a01b031614611deb5760405162461bcd60e51b815260206004820152602560248201527f4552433732313a207472616e736665722066726f6d20696e636f72726563742060448201527f6f776e65720000000000000000000000000000000000000000000000000000006064820152608401610658565b6001600160a01b038216611e665760405162461bcd60e51b8152602060048201526024808201527f4552433732313a207472616e7366657220746f20746865207a65726f2061646460448201527f72657373000000000000000000000000000000000000000000000000000000006064820152608401610658565b611e718383836122f4565b611e7c600082611b03565b6001600160a01b0383166000908152600360205260408120805460019290611ea5908490612ced565b90915550506001600160a01b0382166000908152600360205260408120805460019290611ed3908490612cd5565b909155505060008181526002602052604080822080546001600160a01b0319166001600160a01b0386811691821790925591518493918716917fddf252ad1be2c89b69c2b068fc378daa952ba7f163c4a11628f55a4df523b3ef91a4505050565b600d80546001600160a01b038381166001600160a01b0319831681179093556040519116919082907f8be0079c531659141344cd1fd0a4f28419497f9722a3daafe3b4186f6b6457e090600090a35050565b6001600160a01b038216611fdc5760405162461bcd60e51b815260206004820181905260248201527f4552433732313a206d696e7420746f20746865207a65726f20616464726573736044820152606401610658565b6000818152600260205260409020546001600160a01b0316156120415760405162461bcd60e51b815260206004820152601c60248201527f4552433732313a20746f6b656e20616c7265616479206d696e746564000000006044820152606401610658565b61204d600083836122f4565b6001600160a01b0382166000908152600360205260408120805460019290612076908490612cd5565b909155505060008181526002602052604080822080546001600160a01b0319166001600160a01b03861690811790915590518392907fddf252ad1be2c89b69c2b068fc378daa952ba7f163c4a11628f55a4df523b3ef908290a45050565b816001600160a01b0316836001600160a01b031614156121365760405162461bcd60e51b815260206004820152601960248201527f4552433732313a20617070726f766520746f2063616c6c6572000000000000006044820152606401610658565b6001600160a01b03838116600081815260056020908152604080832094871680845294825291829020805460ff191686151590811790915591519182527f17307eab39ab6107e8899845ad3d59bd9653f200f220920489ca2b5937696c31910160405180910390a3505050565b6121ae848484611d5c565b6121ba8484848461237f565b6107875760405162461bcd60e51b815260206004820152603260248201527f4552433732313a207472616e7366657220746f206e6f6e20455243373231526560448201527f63656976657220696d706c656d656e74657200000000000000000000000000006064820152608401610658565b6000604051806080016040528060438152602001612dbd604391398051602091820120835184830151604080870151805190860120905161228c950193845260208401929092526001600160a01b03166040830152606082015260800190565b604051602081830303815290604052805190602001209050919050565b60006122b4600b5490565b6040517f1901000000000000000000000000000000000000000000000000000000000000602082015260228101919091526042810183905260620161228c565b6122ff838383612502565b600d54600160a01b900460ff16156107895760405162461bcd60e51b815260206004820152602b60248201527f4552433732315472616461626c653a20746f6b656e207472616e73666572207760448201527f68696c65207061757365640000000000000000000000000000000000000000006064820152608401610658565b60006001600160a01b0384163b156124f757836001600160a01b031663150b7a026123a8611917565b8786866040518563ffffffff1660e01b81526004016123ca9493929190612c86565b602060405180830381600087803b1580156123e457600080fd5b505af1925050508015612414575060408051601f3d908101601f1916820190925261241191810190612b46565b60015b6124c4573d808015612442576040519150601f19603f3d011682016040523d82523d6000602084013e612447565b606091505b5080516124bc5760405162461bcd60e51b815260206004820152603260248201527f4552433732313a207472616e7366657220746f206e6f6e20455243373231526560448201527f63656976657220696d706c656d656e74657200000000000000000000000000006064820152608401610658565b805181602001fd5b6001600160e01b0319167f150b7a0200000000000000000000000000000000000000000000000000000000149050611d54565b506001949350505050565b6001600160a01b03831661255d5761255881600880546000838152600960205260408120829055600182018355919091527ff3f7a9fe364faab93b216da50a3214154f22a0a2b415b23a84c8169e8b636ee30155565b612580565b816001600160a01b0316836001600160a01b0316146125805761258083826125ba565b6001600160a01b0382166125975761078981612657565b826001600160a01b0316826001600160a01b031614610789576107898282612730565b600060016125c78461110c565b6125d19190612ced565b600083815260076020526040902054909150808214612624576001600160a01b03841660009081526006602090815260408083208584528252808320548484528184208190558352600790915290208190555b5060009182526007602090815260408084208490556001600160a01b039094168352600681528383209183525290812055565b60085460009061266990600190612ced565b6000838152600960205260408120546008805493945090928490811061269f57634e487b7160e01b600052603260045260246000fd5b9060005260206000200154905080600883815481106126ce57634e487b7160e01b600052603260045260246000fd5b600091825260208083209091019290925582815260099091526040808220849055858252812055600880548061271457634e487b7160e01b600052603160045260246000fd5b6001900381819060005260206000200160009055905550505050565b600061273b8361110c565b6001600160a01b039093166000908152600660209081526040808320868452825280832085905593825260079052919091209190915550565b82805461278090612d30565b90600052602060002090601f0160209004810192826127a257600085556127e8565b82601f106127bb57805160ff19168380011785556127e8565b828001600101855582156127e8579182015b828111156127e85782518255916020019190600101906127cd565b506127f49291506127f8565b5090565b5b808211156127f457600081556001016127f9565b600067ffffffffffffffff8084111561282857612828612d7b565b604051601f8501601f19908116603f0116810190828211818310171561285057612850612d7b565b8160405280935085815286868601111561286957600080fd5b858560208301376000602087830101525050509392505050565b8035801515811461289357600080fd5b919050565b600082601f8301126128a8578081fd5b61171a8383356020850161280d565b6000602082840312156128c8578081fd5b813561171a81612d91565b600080604083850312156128e5578081fd5b82356128f081612d91565b9150602083013561290081612d91565b809150509250929050565b60008060006060848603121561291f578081fd5b833561292a81612d91565b9250602084013561293a81612d91565b929592945050506040919091013590565b60008060008060808587031215612960578081fd5b843561296b81612d91565b9350602085013561297b81612d91565b925060408501359150606085013567ffffffffffffffff81111561299d578182fd5b6129a987828801612898565b91505092959194509250565b600080604083850312156129c7578182fd5b82356129d281612d91565b91506129e060208401612883565b90509250929050565b600080600080600060a08688031215612a00578081fd5b8535612a0b81612d91565b9450602086013567ffffffffffffffff811115612a26578182fd5b612a3288828901612898565b9450506040860135925060608601359150608086013560ff81168114612a56578182fd5b809150509295509295909350565b60008060408385031215612a76578182fd5b8235612a8181612d91565b946020939093013593505050565b600080600060408486031215612aa3578283fd5b833567ffffffffffffffff80821115612aba578485fd5b818601915086601f830112612acd578485fd5b813581811115612adb578586fd5b8760208260051b8501011115612aef578586fd5b60209283019550935050840135612b0581612d91565b809150509250925092565b600060208284031215612b21578081fd5b61171a82612883565b600060208284031215612b3b578081fd5b813561171a81612da6565b600060208284031215612b57578081fd5b815161171a81612da6565b600060208284031215612b73578081fd5b5035919050565b60008060408385031215612b8c578182fd5b82359150602083013567ffffffffffffffff811115612ba9578182fd5b8301601f81018513612bb9578182fd5b612bc88582356020840161280d565b9150509250929050565b60008151808452612bea816020860160208601612d04565b601f01601f19169290920160200192915050565b60008251612c10818460208701612d04565b9190910192915050565b60008351612c2c818460208801612d04565b60609390931b6bffffffffffffffffffffffff19169190920190815260140192915050565b60006001600160a01b03808616835280851660208401525060606040830152612c7d6060830184612bd2565b95945050505050565b60006001600160a01b03808716835280861660208401525083604083015260806060830152612cb86080830184612bd2565b9695505050505050565b60208152600061171a6020830184612bd2565b60008219821115612ce857612ce8612d65565b500190565b600082821015612cff57612cff612d65565b500390565b60005b83811015612d1f578181015183820152602001612d07565b838111156107875750506000910152565b600181811c90821680612d4457607f821691505b602082108114156116bb57634e487b7160e01b600052602260045260246000fd5b634e487b7160e01b600052601160045260246000fd5b634e487b7160e01b600052604160045260246000fd5b6001600160a01b038116811461085957600080fd5b6001600160e01b03198116811461085957600080fdfe4d6574615472616e73616374696f6e2875696e74323536206e6f6e63652c616464726573732066726f6d2c62797465732066756e6374696f6e5369676e617475726529a2646970667358221220c160e84651229ac97e1b2c409bfdbabad792045383816290fca80835cae5771f64736f6c63430008040033454950373132446f6d61696e28737472696e67206e616d652c737472696e672076657273696f6e2c6164647265737320766572696679696e67436f6e74726163742c627974657333322073616c7429",
  "linkReferences": {},
  "deployedLinkReferences": {}
}